{
  "contractName": "LCIBlockchain",
  "abi": [
    {
      "anonymous": false,
      "inputs": [
        {
          "indexed": false,
          "internalType": "string",
          "name": "_supplyChainId",
          "type": "string"
        },
        {
          "indexed": false,
          "internalType": "address",
          "name": "_fromEthAddress",
          "type": "address"
        },
        {
          "indexed": false,
          "internalType": "address",
          "name": "_toEthAddress",
          "type": "address"
        },
        {
          "indexed": false,
          "internalType": "string",
          "name": "_batchId",
          "type": "string"
        },
        {
          "indexed": false,
          "internalType": "string",
          "name": "_productInformation",
          "type": "string"
        }
      ],
      "name": "GetNewTransaction",
      "type": "event"
    },
    {
      "constant": false,
      "inputs": [
        {
          "internalType": "string",
          "name": "_supplyChainId",
          "type": "string"
        },
        {
          "internalType": "address",
          "name": "_toEthAddress",
          "type": "address"
        },
        {
          "internalType": "string",
          "name": "_batchId",
          "type": "string"
        },
        {
          "internalType": "string",
          "name": "_productInformation",
          "type": "string"
        }
      ],
      "name": "setNewTransaction",
      "outputs": [],
      "payable": false,
      "stateMutability": "nonpayable",
      "type": "function"
    },
    {
      "constant": true,
      "inputs": [
        {
          "internalType": "string",
          "name": "_supplyChainId",
          "type": "string"
        },
        {
          "internalType": "address",
          "name": "_fromEthAddress",
          "type": "address"
        },
        {
          "internalType": "address",
          "name": "_toEthAddress",
          "type": "address"
        },
        {
          "internalType": "string",
          "name": "_batchId",
          "type": "string"
        }
      ],
      "name": "getData",
      "outputs": [
        {
          "internalType": "string",
          "name": "",
          "type": "string"
        }
      ],
      "payable": false,
      "stateMutability": "view",
      "type": "function"
    }
  ],
  "bytecode": "0x608060405234801561001057600080fd5b50610883806100206000396000f3fe608060405234801561001057600080fd5b50600436106100365760003560e01c806339a0486c1461003b57806385b1359e146101f2575b600080fd5b61017d6004803603608081101561005157600080fd5b810190602081018135600160201b81111561006b57600080fd5b82018360208201111561007d57600080fd5b803590602001918460018302840111600160201b8311171561009e57600080fd5b91908080601f01602080910402602001604051908101604052809392919081815260200183838082843760009201919091525092956001600160a01b038535811696602087013590911695919450925060608101915060400135600160201b81111561010957600080fd5b82018360208201111561011b57600080fd5b803590602001918460018302840111600160201b8311171561013c57600080fd5b91908080601f0160208091040260200160405190810160405280939291908181526020018383808284376000920191909152509295506103b3945050505050565b6040805160208082528351818301528351919283929083019185019080838360005b838110156101b757818101518382015260200161019f565b50505050905090810190601f1680156101e45780820380516001836020036101000a031916815260200191505b509250505060405180910390f35b6103b16004803603608081101561020857600080fd5b810190602081018135600160201b81111561022257600080fd5b82018360208201111561023457600080fd5b803590602001918460018302840111600160201b8311171561025557600080fd5b91908080601f01602080910402602001604051908101604052809392919081815260200183838082843760009201919091525092956001600160a01b03853516959094909350604081019250602001359050600160201b8111156102b857600080fd5b8201836020820111156102ca57600080fd5b803590602001918460018302840111600160201b831117156102eb57600080fd5b91908080601f0160208091040260200160405190810160405280939291908181526020018383808284376000920191909152509295949360208101935035915050600160201b81111561033d57600080fd5b82018360208201111561034f57600080fd5b803590602001918460018302840111600160201b8311171561037057600080fd5b91908080601f016020809104026020016040519081016040528093929190818152602001838380828437600092019190915250929550610525945050505050565b005b60606000856040518082805190602001908083835b602083106103e75780518252601f1990920191602091820191016103c8565b51815160209384036101000a60001901801990921691161790529201948552506040805194859003820185206001600160a01b038a81166000908152918452828220908a16825283522086519094879450925082918401908083835b602083106104625780518252601f199092019160209182019101610443565b518151600019602094850361010090810a820192831692199390931691909117909252949092019687526040805197889003820188208054601f60026001831615909802909501169590950492830182900482028801820190528187529294509250508301828280156105165780601f106104eb57610100808354040283529160200191610516565b820191906000526020600020905b8154815290600101906020018083116104f957829003601f168201915b50505050509050949350505050565b806000856040518082805190602001908083835b602083106105585780518252601f199092019160209182019101610539565b51815160209384036101000a60001901801990921691161790529201948552506040805194859003820185203360009081529083528181206001600160a01b038b16825283522087519094889450925082918401908083835b602083106105d05780518252601f1990920191602091820191016105b1565b51815160209384036101000a6000190180199092169116179052920194855250604051938490038101909320845161061195919491909101925090506107b3565b507fe37b7df57a188a0bbe237b034c0da4404257854017e08a904d4a98c636b2588184338585856040518080602001866001600160a01b03166001600160a01b03168152602001856001600160a01b03166001600160a01b031681526020018060200180602001848103845289818151815260200191508051906020019080838360005b838110156106ad578181015183820152602001610695565b50505050905090810190601f1680156106da5780820380516001836020036101000a031916815260200191505b50848103835286518152865160209182019188019080838360005b8381101561070d5781810151838201526020016106f5565b50505050905090810190601f16801561073a5780820380516001836020036101000a031916815260200191505b50848103825285518152855160209182019187019080838360005b8381101561076d578181015183820152602001610755565b50505050905090810190601f16801561079a5780820380516001836020036101000a031916815260200191505b509850505050505050505060405180910390a150505050565b828054600181600116156101000203166002900490600052602060002090601f016020900481019282601f106107f457805160ff1916838001178555610821565b82800160010185558215610821579182015b82811115610821578251825591602001919060010190610806565b5061082d929150610831565b5090565b61084b91905b8082111561082d5760008155600101610837565b9056fea265627a7a72315820d7fdcd17c64c72183deeb03f1b1e18626cc0dbc9fa7884ce25a55c5a022e831d64736f6c634300050c0032",
  "source": "pragma solidity >=0.5.0 <0.7.0;\n/*\n  contract LCIBlockchain erbt von Ownable, SafeMath, dem ERC721 und ERC20 Token\n*/\ncontract LCIBlockchain {      //is Ownable, SafeMath, ERC721, ERC20, ChainlinkClient {\n\n\n  mapping (string => mapping (address => mapping (address => mapping (string => string)))) supplyChainIDToData;\n  // supplychainID : fromEthAddress : toEthAddress : string : string\n  // Jede Lieferkette hat eine Identifikationsnummer, welche zu der Sender\n  // Ethadresse gemappt wird, welche zu der Empfängeradrresse gemappt wird,\n  // welche zu den Batches gemappt wird.\n\n    // 2. Funktion, um name, supplyEthAddress und IPFS Hash zu speichern und anzuschauen\n\n  event GetNewTransaction(string _supplyChainId, address _fromEthAddress, address _toEthAddress, string _batchId, string _productInformation);\n\n  function setNewTransaction(string memory _supplyChainId, address _toEthAddress, string memory _batchId, string memory _productInformation) public {\n    supplyChainIDToData[_supplyChainId][msg.sender][_toEthAddress][_batchId] = _productInformation;\n    emit GetNewTransaction(_supplyChainId, msg.sender, _toEthAddress, _batchId, _productInformation);\n  }\n\n\n  //Read functions\n  function getData(string memory _supplyChainId, address _fromEthAddress, address _toEthAddress, string memory _batchId) public view returns(string memory) {\n    return supplyChainIDToData[_supplyChainId][_fromEthAddress][_toEthAddress][_batchId];\n  }\n\n}\n",
  "sourcePath": "/home/max/drizzle_example/contracts/LCIBlockchain.sol",
  "compiler": {
    "name": "solc",
    "version": "0.5.12+commit.7709ece9.Emscripten.clang"
  },
  "schemaVersion": "3.0.20",
  "updatedAt": "2020-02-19T14:31:50.821Z",
  "networkType": "ethereum",
  "devdoc": {
    "methods": {}
  },
  "userdoc": {
    "methods": {}
  }
}